:1000000000000320D1010000B53B0000813B00004F
:10001000813B0000813B0000813B0000813B0000F0
:10002000813B0000813B0000813B0000B53B0000AC
:10003000B53B0000813B000061A500008DA70000DA
:10004000B53B0000B53B0000B53B0000B53B0000F0
:10005000B53B0000B53B0000B53B0000B53B0000E0
:10006000B53B0000B53B0000B53B0000B53B0000D0
:10007000B53B0000B53B0000B53B0000B53B0000C0
:10008000B53B0000B53B0000B53B0000B53B0000B0
:10009000B53B0000B53B0000B53B0000B53B0000A0
:1000A00061BA00006DBA0000B53B0000B53B00002E
:1000B000B53B0000B53B0000B53B00005D1B0000F8
:1000C000B53B0000A1410000B53B00004D08000019
:1000D000B53B0000DD200000B53B0000B53B000053
:1000E000B53B0000B53B0000B53B0000B53B000050
:1000F000B53B0000B53B0000B53B0000B53B000040
:10010000FD9A0000119B0000259B0000399B000018
:10011000B53B0000952B0000B53B0000B53B00004F
:10012000B53B0000B53B0000B53B0000B53B00000F
:10013000B53B0000B53B0000B53B0000B53B0000FF
:1001400091550000B53B0000D93A0000B53B0000D6
:10015000B53B0000B53B0000B53B0000B53B0000DF
:10016000B53B0000B53B000079BA0000B53B00008C
:10017000B53B0000B53B0000B53B0000B53B0000BF
:10018000B53B000079880000B53B0000B53B00009E
:10019000B53B0000B53B0000E9250000B53B000081
:1001A000B53B0000B53B0000B53B000085BA000040
:1001B000B53B0000B53B0000B53B0000B53B00007F
:1001C000B53B0000B53B0000B53B0000B53B00006F
:1001D0005A4B4CF2205210B51A804DF628121A8054
:1001E00000BF00BF03F0E9FC554B4FF030621A60CE
:1001F000544A9A60544ADA60544B4FF470021A60C1
:10020000534B544A1A60544A136813F4807301BF65
:1002100052490B604FF4A8531360514B51491A785F
:10022000100742BF1A7842F008021A704E4BAA22F9
:100230001A704E4A4E4B8B4204D252F8040F43F8C8
:10024000040BF8E74B4B4C4A0021934202D243F88F
:10025000041BFAE7494A4A48002350F8231042F8A1
:1002600023100133742BF8D1464B474A802103F801
:10027000011B9342FBD1454B404A1A60444B8A22F2
:100280001A70A3F5805324225A70A0221A709A790A
:100290009107FCD59A79D206FCD43E4A937903F0B3
:1002A0000C03082B3B4BF9D101221A714E225A71D3
:1002B0009A799406FCD537498A79364B5006FBD596
:1002C000354A4FF0827111600921516020221A7065
:1002D0009A7902F00C020C2AFAD1304B304A1A609B
:1002E000304B314A1A6000225A60072243F8042C2E
:1002F0002E4AC3F80C2D62B600F01BFF174B1B688B
:10030000DA0705D52A4800F045FB2A4B2A4A1A602D
:100310002A4B1B785B0609D5264C274B22689A424C
:1003200004D1234800F036FB002323600CF0A2FE2A
:1003300003F04AFC06F0E8FDFEE700BF0E20054092
:1003400030800440823F04000100002B88ED00E073
:10035000002008E00300008510D0034014D00340C3
:1003600002D00740701AFF1F00E00740641501002B
:10037000400CFF1F701AFF1FC83FFF1F0002FF1F26
:100380000000000000E400E064E400E008ED00E0AC
:100390000050064000400640448004400480044071
:1003A000C010050014E000E0BFD4010000002020D0
:1003B000000000001CE00340A5C3945A00F0074071
:1003C000FFFFFFFFFFFFFFFFFFFFFFFFFFFFFFFF3D
:1003D000FFFFFFFFFFFFFFFFFFFFFFFFFFFFFFFF2D
:1003E000FFFFFFFFFFFFFFFFFFFFFFFFFFFFFFFF1D
:1003F000FFFFFFFFFFFFFFFFFFFFFFFFFFFFFFFF0D
:10040000FFFFFFFFFFFFFFFFFFFFFFFFDEF9FFFF23
:10041000044B05481B1A062B02D9044B03B118479D
:10042000704700BF731AFF1F701AFF1F0000000003
:1004300005490648091A891001EBD171491002D00B
:10044000034B03B118477047701AFF1F701AFF1F44
:100450000000000010B5064C237843B9FFF7D8FF21
:10046000044B13B10448AFF300800123237010BD87
:10047000701AFF1F000000006815010008B5084B46
:100480001BB108490848AFF300800848036813B956
:10049000BDE80840CCE7064B002BF9D09847F7E7BA
:1004A00000000000741AFF1F68150100701AFF1F7A
:1004B00000000000144A136843F480531360134A89
:1004C0000023137053709370D3701371104A40F26D
:1004D000133111604FF4517151600E4AC0F3443131
:1004E0001170C0F3471100F01F00517090729370AB
:1004F00013742C23D370084B40221A70A3F21F33BD
:1005000008221A60704700BF348004408C1AFF1F15
:1005100008C0044000C0064023E400E0184B9A786D
:1005200002F0EC0100F003020A43410748BF42F029
:1005300010029A70124900F00F02042A02BF8A7951
:1005400042F040028A715A79C30602F0EF020C4B66
:1005500048BF42F010025A719A79810602F0EF0208
:1005600048BF42F010029A71C305054906D54B7881
:100570000A78DBB242F020020A704B70704700BF6D
:1005800000C00640114B1B68DB0410B500D410BD41
:100590000F4C21790E4B01F0FF0211B109F00AFF57
:1005A000F7E70C49082008600B4900F1804000F58E
:1005B0009820CA7040F20311016041601A705A70AD
:1005C0009B680BB101221A7010BD00BF348004403B
:1005D0008C1AFF1F84E100E000C006400A4A38B5CB
:1005E0000446137903F0FF05002BFAD101212046C0
:1005F00000F0EEFA2946204600F0BCFA034B53F80F
:100600003420014BDA6038BD8C1AFF1F480A010004
:1006100010B509B140F080000E4B1A78904217D007
:100620000D4C2468E40412D502F07F02082A02BFB0
:100630000A4A00241460002900F07F010CBF442204
:100640006022082902BF054942F440720A6018700E
:1006500010BD00BF2C0DFF1F348004400CC00440AF
:10066000704738B50C4B1B6813F480534FF00004EF
:1006700010D03F28094D0AD8094B012153F83030DA
:10068000AB6000F0A5FAAB681C70012038BDAC600F
:10069000204638BD184638BD348004408C1AFF1FF0
:1006A000480A01000B4B1B6813F4805310D00E282E
:1006B000094B09D1094A40F2023111605A7B42F0DC
:1006C00001025A73012070475A7B02F0FE025A73EE
:1006D000002070473480044000C0064004C004403D
:1006E0001E4B1B68DA042DE9F041064633D51C4D3C
:1006F000EB680BB101221A70AC78DFF86480194FF7
:100700000134282C28BF0024EA78154BA24218D1C6
:1007100003F08BFA40280FDC3B791B06F4D598F8E0
:1007200003300133282B28BF0023EA18DBB2127CE8
:10073000D2B2FA71EB70E7E7FF28E5DD09F03AFE87
:10074000E2E71A19F6B21674E4B201221A719C702B
:10075000044BAC22DA70BDE8F08100BF3480044065
:100760008C1AFF1F00C0064038B504464518AC423D
:1007700004D014F8010BFFF7B3FFF8E738BD10B54C
:10078000034C237913B109F015FEFAE710BD00BF41
:100790008C1AFF1F054B9878DA78C0B2D3B2984212
:1007A0002CBF273303F1FF33181A70478C1AFF1F31
:1007B000044B18785A78C0B2D3B2984238BF403050
:1007C000C01A70478C1AFF1F10B50F4C237862783F
:1007D000D9B2D2B2914214D0531C402B28BF00236F
:1007E000E21892F83800DAB26270A268C0B252B170
:1007F0008B4288BF4031CB1A1A2B04DC00231370C4
:1008000010BD4FF0FF3010BD8C1AFF1F084A117841
:100810005378DBB2994208D00133402B28BF002324
:10082000134493F83800C0B270474FF0FF30704760
:100830008C1AFF1F044B5A78D2B21A709B680BB106
:1008400000221A70704700BF8C1AFF1F10B5274B8B
:100850001A7992061FD5264AD97913785078013330
:100860003F2BC8BF0023834218BFD018C9B21EBF98
:1008700080F83810D9B21170916861B11C4AD278F1
:10088000D2B2934236BFC2F140029B1A9B18272B6B
:10089000C4BF01230B701548C278D2B2130615D518
:1008A00003791C0612D512498C78CB78DBB29C42B6
:1008B00002D16C23C37009E00133282B28BF002329
:1008C000CC18DBB2247CE4B2C471CB7051060BD5DA
:1008D000064B1A79520607D5054A00211171D268D4
:1008E00002B111702C22DA7010BD00BF00C00640AA
:1008F0008C1AFF1F70471030014B43F820107047CF
:100900000002FF1F194B03EBC000426802F1404395
:10091000A3F592217C2910D9A3F594217C290ED925
:10092000A3F596217C290CD9A3F598217C290AD915
:10093000A3F59A237C2B08D970470D4906E00D4991
:1009400004E00D4902E00D4900E00D4972B613685C
:1009500023F0877323F4803343F080731360C2F372
:100960008402084B41F8223062B67047480A010001
:100970006C0EFF1F0C0EFF1FDC0DFF1F9C0DFF1FD9
:10098000300DFF1FF5080000014B1868704700BFCD
:1009900000D00340044B054900221A600A60044A53
:1009A000106010221A60704714D0034004D0034036
:1009B00000D0034000280EDB03024FF48072B3F531
:1009C000004F06D3013A012AA3EB000101D00B46E8
:1009D000F5E71B0A10E043421B024FF48072B3F5A7
:1009E000014F06D3013A012A00EB030101D00B4667
:1009F000F5E71B0AC3F58073013A43EA0223014A73
:100A0000136070470CD0034020B11028034628BF64
:100A1000102300E00123034A92F8B40182F8B431B4
:100A2000704700BF300DFF1F2DE9F843A0F11007FC
:100A3000FFB2012F054689460DD93B4948460CF0C7
:100A400087FA3A4A002847F6122315BF02260126E4
:100A50009846904602E0DFF818810126002428FA23
:100A600004F00CF07FF84FF05E510CF0D3F8014623
:100A700048460CF081FA10B90134072CEFD128FA5E
:100A800004F00CF06FF849460CF078F94FF07C5107
:100A90000BF0B6FF0CF09AFA4FF6FF73984228BF9E
:100AA0001846EB1E012B06D8214B224900221A6062
:100AB0000A60214A32E0172D0CD8204BEB4003F09E
:100AC000010383F001022BB11D4B1E491A600A601D
:100AD0001D4A23E0A5F11D03012B06D81B4B1C4921
:100AE00000221A600A601B4A18E00E2D04D844F256
:100AF0008413EB40DB0702D4233D032D06D8164BAD
:100B0000164900221A600A60154A07E0012F09D829
:100B1000144B154900221A600A60144A106044EA16
:100B2000C6041C60BDE8F883C0E1E440008793037D
:100B30000090034004900340089003406006F000DA
:100B400000800340048003400880034000800B4085
:100B500004800B4008800B4000900B4004900B4039
:100B600008900B4000900C4004900C4008900C4002
:100B70000024F4003F2810B518D80D4B53F830204E
:100B800092F880423CB1012311B182F8803010BD4F
:100B900082F8003110BD03EBC0035B681A6811B125
:100BA00042F0030201E022F002021A6010BD00BF11
:100BB000480A01003F289FBF044B53F8303093F898
:100BC0000002C0B288BF0020704700BF480A010081
:100BD0003F2810B52BD8164A02EBC00301295B68E9
:100BE000144601D004290FD154F83020012082F896
:100BF00080024FF4A2721A601A6804290CBF42F0F6
:100C0000200222F0200211E052F83000002280F889
:100C1000802211B94FF4807208E0022902D140F21B
:100C2000031203E0032908BF4FF481721A6010BD5C
:100C3000480A01003F2870B50E4659D8042A57D8F3
:100C4000DFE802F0070905030B00092306E00A2389
:100C500004E0082302E00C2300E00B231D04254BD5
:100C600003EBC0035C68216811F4E06101D1FFF778
:100C7000AFFF214B214AC3F82C21214AC3F8302170
:100C8000204AC3F83421204AC3F838211F4AC3F848
:100C90003C2104F14043A3F592227C2A10D9A3F50C
:100CA00094227C2A0ED9A3F596227C2A0CD9A3F58E
:100CB00098227C2A0AD9A3F59A237C2B08D970BDE7
:100CC000134B06E0134B04E0134B02E0134B00E020
:100CD000134B72B6226822F47022226042F08071B7
:100CE000C4F3840243F8226045EA0103236062B63C
:100CF00070BD00BF480A01000002FF1FF90CFF1F72
:100D0000C90CFF1F990CFF1F6D0CFF1F410CFF1F2B
:100D10006C0EFF1F0C0EFF1FDC0DFF1F9C0DFF1F35
:100D2000300DFF1F38B5A0F14203012B7A4B054669
:100D300093F8B43114D80B2B03D8C3F10C039940AA
:100D400003E00C2B1CBF0C3B1941422D084603D17C
:100D5000BDE8384002F0BCBCBDE8384002F0D4BC6D
:100D60000124002904FA03F201DC002102E08A4296
:100D700004D82146FFF7FEFE2146C8E0C21E012A24
:100D800001D8664A18E0A0F11D02012A01D8644A80
:100D900012E00E2804D844F28412C240D20703D4D1
:100DA000A5F12302032A01D85E4A05E0A5F110024D
:100DB000012A94BF5C4A5D4A126802FB011222FAC2
:100DC00003F3AA1E242A00F29A80DFE802F05B43B4
:100DD000493D2B676D1F2598989861988B9198983D
:100DE0003137131998989898984F55989898987300
:100DF000797F85004E4A136040F244424D4B7CE0BF
:100E00004D4A136040F244424C4B76E04C4A13602A
:100E100040F244424B4B70E04B4A136040F2444274
:100E20004A4B6AE04A4A136040F24442494B64E04C
:100E3000494A136040F24442484B5EE0484A13601E
:100E400040F24442474B58E0474A136040F2444264
:100E5000464B52E0464A13604FF45172454B4CE00A
:100E6000454A13604FF45172444B46E0444A1360C4
:100E70004FF45172434B40E0434A13604FF45172B8
:100E8000424B3AE0424A136040F24442414B34E064
:100E9000414A136040F24442404B2EE0404A136006
:100EA00040F244423F4B28E03F4A136040F2444244
:100EB0003E4B22E03E4A13604FF451723D4B1CE022
:100EC0003D4A13604FF451723C4B16E03C4A1360AC
:100ED0004FF451723B4B10E03B4A13604FF4517298
:100EE0003A4B0AE03A4A136040F24462394B04E05C
:100EF000394A1360394B40F244621A6038BD7F2989
:100F0000D4BF002101212846FFF734FE01212846E5
:100F1000BDE83840FFF75CBE300DFF1F089003406E
:100F200008800B4008900B4008900C40088003405C
:100F30001080034004B004401880034008B004400F
:100F4000208003400CB004402880034010B00440CF
:100F50003080034010C004403880034014C0044077
:100F60004080034018C00440488003401CC0044037
:100F70001090034030900440189003403490044097
:100F800010800B4048A0044018800B404CA0044047
:100F900010900B4000C0044018900B4004C0044067
:100FA00020900B4008C0044028900B400CC0044027
:100FB00030900B4020B0044038900B4024B00440E7
:100FC00040900B4028B0044048900B402CB00440A7
:100FD00010900C4000A0044018900C4004A0044065
:100FE0002DE9F04107460E4690460825012408EAFF
:100FF00004013846FFF7BEFD01213046FFF7BAFD78
:1010000000213046FFF7B6FD6400013DE4B2EED1A9
:10101000BDE8F0812DE9F04107460E4690460824D0
:10102000802508EA05013846FFF7A4FD0121304676
:10103000FFF7A0FD00213046FFF79CFD013C4FEA81
:101040005505EED1BDE8F08112B91A46FFF7C8BFC9
:101050001A46FFF7DFBF2DE9F04180460F4608260C
:101060000025012438460121FFF784FD4046FFF7A3
:10107000A1FD00B1254300213846FFF77BFD640048
:10108000013EE4B2EED12846BDE8F0812DE9F04101
:1010900080460F4608250024802638460121FFF7A8
:1010A00069FD4046FFF786FD00B134430021384614
:1010B000FFF760FD013D4FEA5606EED12046BDE840
:1010C000F0810AB9FFF7C7BFFFF7E0BF72B60B4B5D
:1010D0000B4A0C491B681268096862B6490102D5BF
:1010E000322B88BF0132C3F5EA337820BF33B3FB1C
:1010F000F0F34FF47A7000FB0230704718E000E024
:10110000041BFF1F04ED00E038B50446FFF7DEFFC7
:10111000054624B938BD013C0AD005F57A75FFF7BC
:10112000D5FF401BB0F57A7FF5D209F043F9F6E719
:1011300038BD384B38494FF0006270B51A604FF037
:1011400080521A604FF000521A604FF080421A60CD
:101150004FF000421A60314B314D324C324E00227A
:101160004EF6FF701A60586028230B608B600B618D
:101170008B610B628B620B638B63103101F5012174
:101180002B6023600B608B600B618B610B628B6249
:101190000921316006F58056043632607060B36014
:1011A000336146F8041C06F5FE2632607060B360B9
:1011B000336146F8041C06F58056326070601B48A7
:1011C0002B6023600160A0F5E120A0F2D4700168DB
:1011D00041F40071016050F8281C41F0007140F8A2
:1011E000281C13490A60134A47F6FF7111605360C7
:1011F000D360114B08221A6002F032F93220FFF757
:1012000083FF01F0E5FF4FF4AF70BDE87040FFF7DA
:101210007BBF00BF04E100E00C800340048003407A
:101220000C900B4014900B400080034000900B404A
:1012300004900C4008900C4000900C4070B51224B3
:1012400006464C4333782BB1013CFBD1002070BDE6
:10125000013CFBD03378002BFAD0FFF737FF05466F
:10126000337813B1013CFBD1F0E7FFF72FFF401BB0
:1012700070BD70B5122406464C4333782BB9013C3F
:10128000FBD1002070BD013CFBD03378002BFAD19C
:10129000FFF71CFF0546337813B9013CFBD1F0E79B
:1012A000FFF714FF401B70BD3F280DD8074B53F8C4
:1012B000300021B1114600F50070FFF7BFBF1146A5
:1012C00000F50070FFF7D5BF00207047480A010005
:1012D00030B503460020B3FBF2F402FB1433092BB4
:1012E00094BF30333733DBB20B5423460CB101309B
:1012F000F1E70A1823465470C41AA34206DACC5CFC
:101300001578CD5402F801490133F5E7084630BDA0
:10131000031E10B50C4603DBBDE81040FFF7D8BF35
:101320002D2001F8010B5842FFF7D2FF204610BDD7
:101330002DE9F04381EAE17985B00F46A9EBE17927
:101340000146064615461C460BF02AFE78B30021DE
:1013500030460BF0FDFD002814BF04200320484553
:10136000B4BFC0EB09050025002F07DA6019202360
:10137000844202D004F8013BFAE7002530464FF0E2
:101380007E5363F31E0000210BF0E2FD10B12D230C
:101390002370013441234E226370E31C2270A2703B
:1013A0005819202283423CD003F8012BFAE726F09B
:1013B0000048774940460BF0F3FDA8BB404674490E
:1013C0000BF0D0FD804678BB002130460BF0C0FD0D
:1013D000002814BF042003204845B4BFC0EB090512
:1013E0004546002F07DA60192023844202D004F812
:1013F000013BFAE70025002130460BF0A9FD10B1B2
:101400002D2323700134492323704E234622637019
:10141000E31CA27058192022834202D003F8012B4A
:10142000FAE700230370B0E002AB01AA2946304678
:101430000BF00DFE814665B9019B53B990F8009001
:10144000544B554AB9F1340F94BF91469946012344
:101450000193019B5B429D42BCBFDFF83C916B4214
:101460004846B8BF01930CF004F8019B98428046AF
:10147000C8BF00F10108002B02D108F1010825E0E6
:1014800024DA1DB32B44984205F102081ED9A9465F
:10149000B9F1000F07DD304640490BF0BBFB09F105
:1014A000FF390646F4E7002DACBF691B294602ABA5
:1014B00003AA30460BF0CBFD019B039A691CD21A9C
:1014C0008A4208BF0133814608BF0193029808B1E0
:1014D00008F10108C8EB0703002B04EB080208DD44
:1014E0001A44214623442026994203D001F8016B77
:1014F000FAE7234610B12D21197001330199002913
:1015000009D135B11946302001F8020B2E20587050
:101510000B462E2522E0FCDA002DFAD01D463020A5
:1015200005F8020B2E265E702B46C91A00255E18A0
:1015300003D503F8010B0125F9E7002DE9D0019649
:10154000E7E7581C19F8011B1970824209D001996C
:101550000139019109B9981C5D7003469A42F0D88F
:1015600000E01346002F0DDA47447F421946202041
:101570007A1A1A44002A02DD01F8010BF8E7002F5D
:10158000A8BFDB1900221A70204605B0BDE8F08321
:10159000FFFF7F7FF90D0100B20D01000000204127
:1015A000264A136843F480631360254B00221A70A7
:1015B0005A709A70DA701A715B79152B06D01B2B52
:1015C00008D05BB940F213321E4B06E040F21332F2
:1015D0001D4B02E01D4B40F213321A601C4B1B786E
:1015E000052B07D01A2B09D0012B0BD14FF45172C8
:1015F000184B06E04FF45172174B02E0174B4FF4B3
:1016000051721A60164BC0F344321A70C0F347127D
:101610005A7000F01F000422022198729A70D97447
:101620005A7588221A743C22DA700E4B40221A70C6
:10163000A3F21F334FF000421A6070473480044019
:10164000081BFF1F40A0044018C004403C90044009
:10165000E50EFF1F44A004401CC004403890044025
:1016600000A006401FE400E0184B9A7802F0EC015D
:1016700000F003020A43410748BF42F010029A708B
:10168000124900F00F02042A02BF8A7942F0400298
:101690008A715A79C30602F0EF020C4B48BF42F040
:1016A00010025A719A79810602F0EF0248BF42F0A7
:1016B00010029A71C305054906D54B780A78DBB24A
:1016C00042F020020A704B70704700BF00A0064035
:1016D000224B1B685B0510B500D410BD204C23794C
:1016E0001F4A03F0FF0113B108F064FEF7E71D4B3A
:1016F0004FF0004018601C4BD9705379152B06D061
:101700001B2B08D05BB940F20311184B06E040F2E6
:101710000311174B02E0174B40F203111960164BEF
:101720001B7803F07F03052B07D01A2B09D0012B60
:101730000BD140F20311114B06E040F20311104BA4
:1017400002E0104B40F20311196000231370537034
:1017500093680BB101221A7010BD00BF34800440A1
:10176000081BFF1F80E100E000A0064040A00440ED
:1017700018C004403C900440E50EFF1F44A0044004
:101780001CC00440389004400A4A38B50446137916
:1017900003F0FF05002BFAD101212046FFF718FACC
:1017A00029462046FFF7E6F9034B53F83420014B56
:1017B000DA6038BD081BFF1F480A010010B509B1E7
:1017C00040F08000194A1378984214462DD0184AE8
:1017D0001268520528D503F07F03052B06D01A2B7B
:1017E00007D0012B08D10022124B04E00022124B3B
:1017F00001E0124B00221A60002900F07F0214BFA2
:1018000060234423052A07D01A2A09D0012A0BD1C4
:1018100043F44073074A06E043F44073064A02E08B
:10182000064A43F440731360207010BDE50EFF1F9D
:101830003480044044A004401CC00440389004405C
:10184000144A5379834223D01349096849051ED5A8
:10185000152B05D01B2B06D043B910490B6005E0B2
:1018600000210F4B01E00F4B00211960152806D015
:101870001B2808D058B940F21331084B06E040F25B
:101880001331074B02E0074B40F2133119605071DE
:10189000704700BF081BFF1F3480044040A0044075
:1018A00018C004403C90044038B50D4B1B6813F43D
:1018B00080634FF0000410D03F280A4D0AD80A4B2D
:1018C000012153F83030AB60FFF782F9AB681C7030
:1018D000012038BDAC60204638BD184638BD00BF79
:1018E00034800440081BFF1F480A01000E4B1B6890
:1018F00013F4806316D012280C4B03D140F202314E
:101900000B4A04E0142809D10A4A40F2023111605E
:101910005A7B42F001025A73012070475A7B02F051
:10192000FE025A73002070473480044000A0064035
:101930000CA0044014C004401E4B1B685A052DE93E
:10194000F041064633D51C4DEB680BB101221A70ED
:10195000AC78DFF86480194F0134402C28BF002494
:10196000EA78154BA24218D102F05FF940280FDC4B
:101970003B791B06F4D598F803300133402B28BF80
:101980000023EA18DBB2127CD2B2FA71EB70E7E7FF
:10199000FF28E5DD08F00EFDE2E71A19F6B216742D
:1019A000E4B201221A719C70044BBC22DA70BDE8CB
:1019B000F08100BF34800440081BFF1F00A00640D8
:1019C00000F00F00092894BF30303730FFF7B4BF64
:1019D000234B1B685A052DE9F0413ED5214CE368A5
:1019E0000BB101221A70DFF8808006464718BE420C
:1019F00030D2A578E3780135402D28BF00259D42DF
:101A000008D0631916F8012B1A74EDB20123237163
:101A1000A570ECE7BC2388F8033002F006F94028F3
:101A200010DC98F804301B0610D5E3780133402B06
:101A300028BF0023E218DBB2127CD2B288F807205C
:101A4000E37003E0FF2801DD08F0B4FCE3789D4279
:101A5000E3D0D6E7044BBC22DA70BDE8F08100BFCA
:101A600034800440081BFF1F00A0064010B5034C43
:101A7000237913B108F09EFCFAE710BD081BFF1F85
:101A8000054B9878DA78C0B2D3B298422CBF3F3376
:101A900003F1FF33181A7047081BFF1F044B187817
:101AA0005A78C0B2D3B2984238BF4030C01A70479B
:101AB000081BFF1F10B50F4C23786278D9B2D2B241
:101AC000914214D0531C402B28BF0023E21892F8F7
:101AD0005000DAB26270A268C0B252B18B4288BFC5
:101AE0004031CB1A1A2B04DC0023137010BD4FF0C9
:101AF000FF3010BD081BFF1F084A11785378DBB276
:101B0000994208D00133402B28BF0023134493F897
:101B10005000C0B270474FF0FF307047081BFF1FE6
:101B20000B4B1B685B0512D50A4BDA7802F0CB022F
:101B3000DA7040225A74DA7842F03402DA70064BD6
:101B40005A78D2B21A709B680BB100221A70704793
:101B50003480044000A00640081BFF1F70B53348C6
:101B6000037913F0300F2ED072B6837D03F0FF059A
:101B700023B9C3794023437462B624E062B62C498A
:101B80000B784A78DBB2D2B25C1C402C28BF002410
:101B90009442C67918BF0B19F6B21CBF83F8506087
:101BA00023466C1E14F0FF05EED1D8B20870896888
:101BB00049B1934236BFC2F140029B1A9B18272BB2
:101BC000C4BF01230B70194AD078C0B206061DD5D8
:101BD00013791D061AD516498D78CB78EDB2DBB294
:101BE000AB420BD00133402B28BF00231479CC1813
:101BF000247CE4B2D471147D072CF1D9DBB2CB7014
:101C00000A4B1A79140644BF7C22DA7041060BD5C0
:101C1000064B1A79520607D5054A00211171D26880
:101C200002B111703C22DA7070BD00BF00A0064006
:101C3000081BFF1F38B5451E15F8014F44B10A2C8B
:101C400002D10D20FFF778FE2046FFF775FEF3E77F
:101C500038BD10B504460009FFF7B2FE2046BDE8C6
:101C60001040ADE610B50446000AFFF7F2FF20462B
:101C7000BDE81040FFF7EDBF10B50446000EFFF7BA
:101C8000E8FF200CFFF7E5FF200AFFF7E2FF204600
:101C9000BDE81040FFF7DDBF1F4A136843F400534F
:101CA00013601E4B00221A705A709A70DA701A7103
:101CB0001B4B1A781F2A05D03F2A07D140F2133157
:101CC000184A02E0184A40F2133111605B78202B69
:101CD00005D03E2B07D14FF45172144B02E0144B48
:101CE0004FF451721A60134BC0F344321A70C0F3B0
:101CF00047125A7000F01F00002298729A701A74EE
:101D00002C22DA700C4B40226FF448711A700B448D
:101D100020221A60704700BF34800440981BFF1FC8
:101D2000E60EFF1F14D0044028A0044010D0044049
:101D30002CA0044000D0064025E400E0184B9A781F
:101D400002F0EC0100F003020A43410748BF42F0F1
:101D500010029A70124900F00F02042A02BF8A7919
:101D600042F040028A715A79C30602F0EF020C4B2E
:101D700048BF42F010025A719A79810602F0EF02D0
:101D800048BF42F010029A71C305054906D54B7849
:101D90000A78DBB242F020020A704B70704700BF35
:101DA00000D006401B4B1B689B0410B500D410BD2F
:101DB000194C2379184A03F0FF0113B108F0FAFA1D
:101DC000F7E7164B20201860154BD970154B187883
:101DD0001F2804D03F2806D11348016003E01349AF
:101DE00040F2031008605B7803F07F03202B04D0DF
:101DF0003E2B06D100210E4B02E00E4B40F20311A8
:101E0000196000231370537093680BB101221A708C
:101E100010BD00BF34800440981BFF1F84E100E028
:101E200000D00640E60EFF1F14D0044028A0044056
:101E300010D004402CA004400A4A38B50446137957
:101E400003F0FF05002BFAD101212046FEF7C0FE6A
:101E500029462046FEF78EFE034B53F83420014BF3
:101E6000DA6038BD981BFF1F480A010010B509B1A0
:101E700040F08000144A53789842144622D0134A06
:101E8000126892041DD503F07F03202B04D03E2B53
:101E900005D100220E4B01E00E4B00221A600029F2
:101EA00000F07F0214BF60234423202A05D03E2A7D
:101EB00007D143F44073064A02E0064A43F44073F4
:101EC0001360607010BD00BFE60EFF1F3480044039
:101ED00010D004402CA004400F4B1A7882421AD034
:101EE0000E490968890415D51F2A04D03F2A05D157
:101EF00000210B4A01E00B4A002111601F2805D088
:101F00003F2807D140F21331054A02E0054A40F26A
:101F10001331116018707047E60EFF1F34800440C3
:101F200014D0044028A0044038B50D4B1B6813F4AE
:101F300000534FF0000410D03F280A4D0AD80A4B36
:101F4000012153F83030AB60FEF742FEAB681C70E5
:101F5000012038BDAC60204638BD184638BD00BFF2
:101F600034800440981BFF1F480A0100002070477E
:101F70001E4B1B689A042DE9F041064633D51C4DD3
:101F8000EB680BB101221A70AC78DFF86480194F4E
:101F90000134282C28BF0024EA78154BA24218D11E
:101FA00001F043FE40280FDC3B791B06F4D598F87E
:101FB00003300133282B28BF0023EA18DBB2127C40
:101FC000D2B2FA71EB70E7E7FF28E5DD08F0F2F92D
:101FD000E2E71A19F6B21674E4B201221A719C7083
:101FE000044BAC22DA70BDE8F08100BF34800440BD
:101FF000981BFF1F00D0064038B504464518AC4278
:1020000004D014F8010BFFF7B3FFF8E738BD10B5A3
:10201000034C237913B108F0CDF9FAE710BD00BFE6
:10202000981BFF1F054B9878DA78C0B2D3B298425C
:102030002CBF273303F1FF33181A7047981BFF1F7B
:10204000044B18785A78C0B2D3B2984238BF4030A7
:10205000C01A7047981BFF1F10B50F4C2378627889
:10206000D9B2D2B2914214D0531C402B28BF0023C6
:10207000E21892F83800DAB26270A268C0B252B1C7
:102080008B4288BF4031CB1A1A2B04DC002313701B
:1020900010BD4FF0FF3010BD981BFF1F084A11788C
:1020A0005378DBB2994208D00133402B28BF00237C
:1020B000134493F83800C0B270474FF0FF307047B8
:1020C000981BFF1F044B5A78D2B21A709B680BB151
:1020D00000221A70704700BF981BFF1F10B5274BD6
:1020E0001A7992061FD5264AD97913785078013388
:1020F0003F2BC8BF0023834218BFD018C9B21EBFF0
:1021000080F83810D9B21170916861B11C4AD27848
:10211000D2B2934236BFC2F140029B1A9B18272BC2
:10212000C4BF01230B701548C278D2B2130615D56F
:1021300003791C0612D512498C78CB78DBB29C420D
:1021400002D16C23C37009E00133282B28BF002380
:10215000CC18DBB2247CE4B2C471CB7051060BD531
:10216000064B1A79520607D5054A00211171D2682B
:1021700002B111702C22DA7010BD00BF00D00640F1
:10218000981BFF1F424A136843F01003F0B5136019
:1021900052F8285C05F44033283AB3F5403F9646A0
:1021A00006D03C4A3C4DB3F5803F18BF154600E0D1
:1021B0003A4D8700B5FBF7F292B2002A67D094003F
:1021C000B5FBF4F4241A08D0511C8B00B5FBF3F3D3
:1021D000C31A9C4284BF8AB21C46074405264FF0AE
:1021E000040CB5FBF7F39BB2F3B106FB03F1B5FBAF
:1021F000F1F1091AA14203D8B44671B11A4600E0C0
:10220000214601339BB206FB03F4B5FBF4F4041B37
:102210008C429ABF2146B44613460136212E07440C
:1022200003D00C461A46DCE713460CF1FF321206C7
:1022300002F0F852C3F30C031343BCF1070F184A22
:10224000184998BF43F400331360DEF8003043F0C0
:102250008063CEF8003000230B704B708B70CB7016
:102260000B71114940F21350086040F2445048602D
:10227000936013615360936843F4301393600B4B86
:1022800040221A70A3F24E334FF480021A60F0BD60
:102290002C80044080C3C901000E2707006CDC02BB
:1022A00000400C40101CFF1F20C0044056E400E01A
:1022B0001A4A936800F0030123F013030B4341070C
:1022C00048BF43F010039360144900F00F03042B40
:1022D00002BF8B6843F080438B60104B10F0080FF7
:1022E0001EBF1A6842F000521A605A68C30622F0F4
:1022F00080520A4B48BF42F080525A609A68810669
:1023000022F0805248BF42F0805204499A60C305CF
:1023100042BF0B6843F400530B60704700400C4011
:10232000104B1B68DB0610B500D410BD0E4C217994
:102330000D4B01F0FF0211B108F03CF8F7E70B4933
:102340004FF4800008600A490A488A6040F203118D
:10235000016041601A705A709B680BB101221A70BB
:1023600010BD00BF2C800440101CFF1F88E100E05E
:1023700000400C4020C004400A4A38B50446137996
:1023800003F0FF05002BFAD101212046FEF720FCC7
:1023900029462046FEF7EEFB034B53F83420014B51
:1023A000DA6038BD101CFF1F480A010010B509B1E2
:1023B00040F080000E4B1A78904217D00D4C2468E4
:1023C000E40612D502F07F02302A02BF0A4A002436
:1023D0001460002900F07F010CBF442260223029E4
:1023E00002BF054942F4A0620A60187010BD00BF28
:1023F000E80EFF1F2C80044024C00440704738B50D
:102400000C4B1B6813F010034FF0000410D03F2852
:10241000094D0AD8094B012153F83030AB60FEF763
:10242000D7FBAB681C70012038BDAC60204638BDBE
:10243000184638BD2C800440101CFF1F480A0100BC
:102440000B4B1B6813F0100310D03828094B09D12F
:10245000094A40F2025111605A7B42F001025A735C
:10246000012070475A7B02F0FE025A730020704729
:102470002C80044000B00E4028D004401D4B1B6847
:10248000DA062DE9F041064632D51B4DEB680BB15B
:1024900001221A70AC78DFF86080184F0134282CC4
:1024A00028BF0024EA78144BA24218D101F0BDFBEA
:1024B00040280FDC7B681B02F4D598F80330013309
:1024C000282B28BF0023EA18DBB2127CD2B2FA60B4
:1024D000EB70E7E7FF28E5DD07F06CFFE2E71A198C
:1024E000F6B21674E4B201221A719C70044B1A60A1
:1024F000BDE8F0812C800440101CFF1F00400C4000
:102500005C01884338B504464518AC4204D014F841
:10251000010BFFF7B3FFF8E738BD10B5034C237983
:1025200013B107F047FFFAE710BD00BF101CFF1FF3
:10253000054B9878DA78C0B2D3B298422CBF2733D3
:1025400003F1FF33181A7047101CFF1F044B187853
:102550005A78C0B2D3B2984238BF4030C01A7047E0
:10256000101CFF1F10B50F4C23786278D9B2D2B27D
:10257000914214D0531C402B28BF0023E21892F83C
:102580003800DAB26270A268C0B252B18B4288BF22
:102590004031CB1A1A2B04DC0023137010BD4FF00E
:1025A000FF3010BD101CFF1F084A11785378DBB2B2
:1025B000994208D00133402B28BF0023134493F8DD
:1025C0003800C0B270474FF0FF307047101CFF1F3B
:1025D000044B5A78D2B21A709B680BB100221A7061
:1025E000704700BF101CFF1F10B5284B5A6892029D
:1025F0001ED5274AD9681378507801333F2BC8BFBE
:102600000023834205D0D018C9B280F83810D9B25F
:102610001170916861B11E4AD278D2B2934236BF2E
:10262000C2F140029B1A9B18272BC4BF01230B70D9
:1026300016498C68230219D54B68180216D5144A1E
:102640009078D378DBB2984206D1124B00221A6000
:10265000012243F8042C09E00133282B28BF002372
:10266000D018DBB2007CC0B2C860D37062020BD558
:10267000064B5B685B0207D5054A00231371D268DD
:1026800002B11370044A136010BD00BF00400C403B
:10269000101CFF1F5C0188435801884310B5104C83
:1026A00023686BB1206843885A1C03441C7A038852
:1026B0009A4212D300F0F2FD094B00221A600DE09D
:1026C000084B1B7813B94FF0FF3010BD022000F00B
:1026D0007BF920600028E5D1F5E74280204610BD57
:1026E000881CFF1FE81CFF1F10B50B4C236813B19B
:1026F00022686AB902E0094B1B7813B94FF0FF302A
:1027000010BD022000F060F920600028F0D1F5E74C
:1027100053881344187A10BD881CFF1FE81CFF1F44
:10272000044B5888044B1A681AB1138852889B1AB4
:1027300018447047B83FFF1F881CFF1F2DE9F84F52
:10274000DFF87890DFF878B080460E460027CA465A
:1027500086B39BF800306BB3D9F8003053B9022030
:1027600000F032F9CAF8000020B3038813B900F072
:1027700095FDF4E7DAF800502B46698833F8084BEA
:10278000641AB44228BF34462246194440460AF02F
:102790002EFD6B88A0442744361B1C442B88A4B212
:1027A000A3426C80D4D8284600F078FD0023C9F8F5
:1027B0000030CDE73846BDE8F88F00BF881CFF1F0A
:1027C000E81CFF1F10B5094B1B786BB1084C206843
:1027D00018B100F063FD00232360022000F0F4F83C
:1027E00010B100F05BFDF8E710BD00BFE81CFF1F53
:1027F000881CFF1F2DE9F0472B4C2C4F01238146ED
:102800000D4623710E46A046002E49D0A36813BB87
:102810004DF2E90A3B7803F0FF020BB9227113E095
:10282000032000F001F9072807D80123237100F0E5
:1028300017FDA06078B988F80400BAF1010A01D048
:10284000237B2BB1012323734FF0FF30BDE8F087CA
:1028500007F0B0FDDEE7A168002323734B88C3F1C6
:102860004002B24228BF324698180B444880B61A3C
:10287000073309EB020AD14504D019F8012B03F8FC
:10288000012FF8E74B883F2B06D940230B8003200C
:1028900000F01EF90023A36005236373D146B3E75C
:1028A00026712846BDE8F087881CFF1FE81CFF1F23
:1028B00007B502AB012103F8010D1846FFF79AFF97
:1028C00003B05DF804FB10B50D4C01232371A36820
:1028D0007BB90C4B1B7813B90020207110BD03206D
:1028E00000F0A2F80728F7D800F0BAFCA060002892
:1028F000F2D0A368588800232371C0F1400010BDB6
:10290000881CFF1FE81CFF1F70B50F4B1B78D3B14D
:102910000E4CA568012626714DB100266B886673A2
:1029200029462B80032000F0D3F8A66009E000F0D0
:1029300097FC014620B10320657300F0C9F800E060
:1029400066730023237170BDE81CFF1F881CFF1FE6
:1029500038B50D4C237903F0FF059BB9A16831B15F
:102960004B880B80032000F0B3F8A56038BD00F061
:1029700077FC014620B10320BDE8384000F0A8B83C
:102980000123637338BD00BF881CFF1F70B50C4B5B
:102990000C4D1A7842F0020605EBC60482F00102E3
:1029A000606058781A70002814BFC824882480F00A
:1029B000010044EA0141587045F8361070BD00BF6F
:1029C000981CFF1F0000FF1F431E042B10B510D8DA
:1029D00072B6094A02EB8302506840B14168516007
:1029E0000649048831F81320121B21F8132062B61F
:1029F00010BD002010BD00BF981CFF1FB83FFF1F77
:102A0000013804280CD8074B03EB8000836972B6A9
:102A100000201BB11A885B681044FAE762B6704761
:102A200000207047981CFF1F013804280BD872B68D
:102A3000064B03EB80008369002013B101305B6813
:102A4000FBE762B670470020704700BF981CFF1F6D
:102A500070B472B6194C1A4901231A1912F8012CD4
:102A600012071FD59A00164E51F832502DB906EBB9
:102A7000431308305860134B09E042F0010251F84B
:102A800032507DB906EBC203083058600E4B46F851
:102A900032300E4A92F82C30013B82F82C3062B66C
:102AA00070BC70470133062BD7D162B6074B0022AA
:102AB00083F82C2070BC00F0F1BB00BF480C010073
:102AC0000000FF1F88004000C8004000981CFF1F46
:102AD000431E042B10B533D81A4A400140F01000B1
:102AE000104472B6184AD41894F82D40032C0BD811
:102AF000DFE804F015040207052411E00830022481
:102B00000EE0083004240BE09B00D01884690CB957
:102B1000816101E0406B4160134459630FE003247D
:102B2000134410F0080F0A8883F82D4001F10803C0
:102B3000436014BFC823882343EA0243036062B69C
:102B400010BD00BF0000FF1F981CFF1F431E042B79
:102B500030B517D80C4C400140F01000204472B63C
:102B60000A4CE51895F82D5015B10830002500E005
:102B700001252344120442F0800283F82D50416065
:102B8000026062B630BD00BF0000FF1F981CFF1F2F
:102B900000BE70472DE9F74FDFF8CC92B24B1D789D
:102BA000EDB215F0040F1C461CD0B04A92F850301C
:102BB000ABB192F8511001F0FF0329B1013BDBB238
:102BC00082F8513003B900BEA94A117801F0FF0321
:102BD00029B1013BDBB213700BB9FFF7B9FE042337
:102BE00089F8003005F0080303F0FF06002B00F021
:102BF0009882A04BA04E1A78D2B213094FEA9205E0
:102C000040F0038206EBC503596856F83530C3F32C
:102C10008303013B0C2B00F2F481DFE813F0B101D8
:102C2000B101F201F201F201F201F201F201CF0170
:102C3000F201F201F2010D008C4C0A684B686265EA
:102C4000A36592B28D4B46F8353001200023B2F5D2
:102C5000086FE3653361B3616070254600F0EC8076
:102C600025D840F202318A4200F02F810ED8822A04
:102C700000F0E880B2F5817F00F01681802A40F0F4
:102C80004F8184F8483084F8493050E1B2F5A06FA4
:102C900000F04A81C0F04481A2F5D062012A00F21E
:102CA0003F81B4F85620B4F85810754B22E142F237
:102CB00021318A4200F0388113D842F221018A4240
:102CC00000F05B8142F221218A4200F02081B2F5BE
:102CD000106F40F0258194F8562084F850201F464C
:102CE00015E046F2A1618A4200F01A8146F2A17114
:102CF0008A4240F01581042284F84930202384F868
:102D00004B3084F8482084F84A00134610E1F21949
:102D1000136A1B0603D5506A083800F0BFFA08375B
:102D2000A02FF4D1574F4FF00008A7F1150B564ACA
:102D300052F828004FEA880A40B141680192009198
:102D400000F0ACFA0099019A0846F5E74F4B42F8BB
:102D50000A004AF803005AF80B0030B142680092AA
:102D600000F09CFA009A1046F7E7494B03F11C0269
:102D700043F80A00474B4AF8020023F818003B7852
:102D8000023B032B07D8DFE803F002040204002310
:102D900000E001233B7008F10108B8F1050F07F1CD
:102DA0000107C4D100233C4FDFF8D0A084F82C30B9
:102DB0004FF00108394B08EB0702434412F8012C8D
:102DC0009B0012F0080F1A704FEA880B25D000F014
:102DD00047FA38B106EB481308305860304B46F8D4
:102DE0003B3006E095F82C3046F83B00013385F87F
:102DF0002C3000F035FA4BF0010338B106EBC30E6E
:102E00000830CEF8040046F833A006E046F8330058
:102E100095F82C30013385F82C304BF002004BF044
:102E2000030208F101080023B8F1060F46F830301C
:102E300046F83230BED178E094F8503084F848300B
:102E4000034675E0B4F8582002F07F02052A67D8DF
:102E50009200144984F8483084F849308B5C9E070E
:102E600065D584F8480062E080200740981CFF1F69
:102E7000951CFF1F902007400000FF1FC800400066
:102E8000500C0100C51CFF1F9C1CFF1FF81CFF1FDE
:102E9000B01CFF1FB83FFF1F480C010030C80110D5
:102EA00088004000C0200740B4F8582002F07F029C
:102EB000052A35D8B4F85630002B31D1A9499200F3
:102EC00011440A7822F002020EE0B4F8582002F011
:102ED0007F02052A24D8B4F856300BBBA1499200D2
:102EE00011440A7842F002020A701EE018889042EB
:102EF00004D00C335D68002DF8D111E05888884269
:102F0000F7D1120A032A0CBF2B781B8911E0964ACD
:102F10001168964A1160964A94F85610117004E0B0
:102F2000904B0F221A7028E000231D4601E0022377
:102F30004835B4F85A609E4228BF1E46402E374698
:102F400028BF402728463946FFF720FDF61B3D44A1
:102F500003D1402F11D1374603E0402E374628BF1A
:102F6000402728463946FFF711FDF61B3D4401D1A5
:102F7000402F02D1E565A4F8746001227D4B3FE04B
:102F80007D4AB2F8540042F22103984212D17B48A4
:102F90000023CC5C1C540133072BFAD1774B1B6800
:102FA0000021862B08BF0F23084608BF82F8513046
:102FB000FFF7ECFC724B46F8353022E06E4FFE6DA9
:102FC00096B1B7F87440402C254628BF40253046BE
:102FD0002946FFF7DBFC601B80B2A7F8740008B934
:102FE000402D00D17019F865B7F85420624BB2F546
:102FF000A06F06D1002283F8552093F85620614B2C
:103000001A705C4B01221A7087E006EBC507013B82
:10301000796802F00802A1F10800DCB202F0FF0CAE
:10302000002A43D000F03AF9534B03EB840E1819F1
:10303000DEF8181019B34A68CEF8182001F108021A
:103040007A6090F82D20032A10D8DFE802F00205FC
:10305000080B2344032207E02344022204E0234414
:10306000052201E02344042283F82D2017F0080FE5
:103070000A8814BFC823882343EA02434BE090F830
:103080002D20032A09D8DFE802F04848020523442E
:10309000002208E02344012205E017F0080F14BFC6
:1030A00003220222234483F82D2036E056F83530DF
:1030B0001B0C1FFA83FE21F808EC33B32E4B21F8CA
:1030C00006CC41F804CC4FEA840C03EB0C014A68AF
:1030D0000AB9486001E00A6E506063442A4A1866E3
:1030E00032F81430DFF89080734422F8143000F086
:1030F000B7F810B10830786007E098F82C3046F83F
:103100003500013388F82C3007E0204A1C4B17F0BB
:10311000080F08BF134646F83530082389F80030F9
:103120003CE5E8073AD5144A124D184811460223E7
:103130002B7001F8786B164BB83283E80300DA6025
:1031400098601E619E61074B0D221A70114AFF2381
:1031500013702370167413710F4B9F221A70012382
:103160002B702EE0C0200740041BFF1FB43FFF1F41
:10317000961CFF1F94200740981CFF1FAC3FFF1FA9
:10318000C800400098200740B83FFF1F880040005B
:103190000000FF1F8820074084200740290604D52F
:1031A000094B0D221A7080232370AA0705D5074A00
:1031B0001378DBB2137002232370EB0644BF102395
:1031C000237003B0BDE8F08FC0200740882007407F
:1031D00010B500F085F800231A4819461950C41894
:1031E0000833A82B174A6160F8D117490B6843F4DC
:1031F00080230B6015490B6843F040730B60144B40
:10320000C2F307211970C2F30741120E19751A761D
:10321000104AFF2313700021137202F8703C01233F
:10322000137582F8801013710B4B70226FF44C7180
:103230001A700B444FF400121A60084B10221A70D7
:1032400010BD00BF0000FF1F3480044000D80040C4
:103250009C2007408020074035E400E0082107401B
:1032600010B572B60B480268B2FA82F11D2902DD70
:1032700062B6002010BD4FF00043CB4022EA0302AB
:10328000026062B6044C48234B43E0180022E2502F
:10329000426010BDEC0EFF1FD003FF1F0C4B4822F5
:1032A000C31AB3FBF2F31D2B11D80A4A127822B1CC
:1032B000094A12780AB1FFF7CBBB72B607494FF043
:1032C000004222FA03F30A681A430A6062B67047A2
:1032D000D003FF1FC41CFF1FE81CFF1FEC0EFF1FC5
:1032E0001FB572B6134B144970221A70134A11603D
:1032F00080221A701A781206FCD5114B186862B633
:10330000104B984298BF0A2301AC98BF58430A2239
:103310002146FDF7DDFF0C4A0023E15C21B10133BA
:103320000A2B22F8021BF8D1084A01335B00137004
:1033300004B010BD0000024000000741040002403C
:103340000C0002407F969800F20EFF1FF00EFF1F48
:10335000F0B5374A374B11680906FCD4196811F0EB
:103360008001F8D172B634480378002B5DD0334B1E
:10337000334A1F6804330C321B6852F80C6C52F845
:10338000085C52F8044C12683B4433442B442344F9
:103390001344C3F34E032B4A43F4004313602A4BF8
:1033A0001F68043340321B6852F80C6C52F8085CFA
:1033B00052F8044C12683B4433442B4423441344D6
:1033C000C3F34E03214A43F400431360204B02F53C
:1033D00000221F68043310321B6816685568946811
:1033E0003B440C32334412682B4423441344C3F34C
:1033F0004E03184A43F400431360174B1F6804330D
:1034000040321B6852F80C6C52F8085C52F8044CBD
:1034100012683B4433442B4423441344C3F34E0308
:103420000E4A43F400431360017062B6F0BD00BF62
:1034300024B0034024B00B40901DFF1F38B0034060
:1034400040B003402CB0034058B0034030B00340BC
:1034500038B00B402CB00B4058B00B4030B00B4094
:1034600030B5214B214D2248224960221A70E122B9
:103470005A702C78204A03F58E23082C03F10C0394
:1034800001D1212402E00A2C03D139240460132045
:1034900005E00C2C0CBF35245D240460122008606C
:1034A0001460164A1860537815491046154A03B13E
:1034B00001230B6013606978134A144B012901D86A
:1034C00080210BE0042901D8842107E0082901D8D4
:1034D000852103E0102994BF86218721116019609E
:1034E0000123037030BD00BF00400740C50FFF1F20
:1034F00008B003400CB0034008B00B40901DFF1F04
:1035000020B0034020B00B4024B0034024B00B4057
:103510000D4B5A7858B1AAB9012159701B7823B1C3
:103520000A4B1A6003F500231A60FFF799BF4AB1EE
:1035300058701B78002BF8D0044B186003F500235B
:103540001860F2E7704700BF901DFF1F24B00340D2
:103550000C2810B404D9102828BF1020102307E02D
:103560000A2804D808288CBF0A23082300E00C236B
:10357000DCB20A4A0A49201A9070087883420BD0BC
:1035800013780C702BB1074A0023136002F5002258
:10359000136010BCFFF764BF10BC7047901DFF1F85
:1035A000C50FFF1F24B0034010B5144B1B78044611
:1035B0000BB1FFF7CDFE012C114A02D80023136096
:1035C00018E0042C0F4903D8042313600B6011E0AA
:1035D000082C04D8052313600B6008230AE0102C84
:1035E00095BF062307231360136095BF0B600B6024
:1035F00010232023044A537010BD00BF901DFF1FED
:1036000024B0034024B00B40C50FFF1F47282DE90D
:10361000F0414CD8274B1D5CFF2D48D0264C237819
:103620000BB1FFF795FE290615D472B6234E01277C
:103630003560E77062B672B633681A0604D5204B5F
:1036400000221B68E27025E0E378002BF0D062B620
:1036500006F0B0FEEFE772B61A4EDFF8708005F0A4
:103660004007FFB205F03F05336817B123F01003A0
:1036700001E043F0100333600123C8F800502371C8
:1036800062B672B6D8F800301B0609D50E4B002280
:103690001B68227162B6A07843FA00F0BDE8F081A1
:1036A0002379002BE0D062B606F084FEE9E7002023
:1036B000BDE8F081B00C0100901DFF1F00B0034079
:1036C00010B003400CB00B4010B00B4000B00B40EA
:1036D000094A136843F480531360084B5A78084B27
:1036E0000AB1802200E0C0221A7080F30C00054B62
:1036F00080B21880704700BF2C800440901DFF1FCF
:1037000021C00C4000C00C40094A136843F4005328
:103710001360084B5A78084B0AB1802200E0C0229F
:103720001A7080F30C00054B80B21880704700BF00
:103730002C800440901DFF1F21D00C4000D00C4075
:10374000144A136843F480631360134A0023137010
:1037500053709370D3701371104A40F2133111609B
:103760004FF4517142F8041C0D4AC0F344311170FA
:10377000C0F3471100F01F005170907293701374E2
:103780002C23D370074B40221A70A3F23A33042241
:103790001A60704728800440981DFF1F64D00440C1
:1037A00000A00E4042E400E0184B9A7802F0EC01D1
:1037B00000F003020A43410748BF42F010029A702A
:1037C000124900F00F02042A02BF8A7942F0400237
:1037D0008A715A79C30602F0EF020C4B48BF42F0DF
:1037E00010025A719A79810602F0EF0248BF42F046
:1037F00010029A71C305054906D54B780A78DBB2E9
:1038000042F020020A704B70704700BF00A00E40CB
:10381000104B1B685B0510B500D410BD0E4C217910
:103820000D4B01F0FF0211B106F0C4FDF7E70B49A3
:10383000042008600A490B48CA7040F20311016075
:1038400040F8041C1A705A709B680BB101221A7060
:1038500010BD00BF28800440981DFF1F88E100E0D4
:1038600000A00E4064D004400A4A38B504461379DB
:1038700003F0FF05002BFAD101212046FDF7A8F93E
:1038800029462046FDF776F9034B53F83420014BC7
:10389000DA6038BD981DFF1F480A010010B509B154
:1038A00040F080000E4B1A78904217D00D4C2468DF
:1038B000640512D502F07F02212A02BF0A4A0024C1
:1038C0001460002900F07F010CBF442260222129EE
:1038D00002BF054942F440720A60187010BD00BF73
:1038E000C70FFF1F2880044060D00440704738B5E0
:1038F0000C4B1B6813F480634FF0000410D03F287A
:10390000094D0AD8094B012153F83030AB60FDF75F
:103910005FF9AB681C70012038BDAC60204638BD33
:10392000184638BD28800440981DFF1F480A010032
:103930000B4B1B6813F4806310D01828094B09D176
:10394000094A40F2023111605A7B42F001025A7377
:10395000012070475A7B02F0FE025A730020704724
:103960002880044000A00E4068D004401E4B1B6815
:103970005A052DE9F041064633D51C4DEB680BB1D5
:1039800001221A70AC78DFF86480194F0134282CBA
:1039900028BF0024EA78154BA24218D100F045F95F
:1039A00040280FDC3B791B06F4D598F8033001332F
:1039B000282B28BF0023EA18DBB2127CD2B2FA719E
:1039C000EB70E7E7FF28E5DD06F0F4FCE2E71A1903
:1039D000F6B21674E4B201221A719C70044BAC2248
:1039E000DA70BDE8F08100BF28800440981DFF1FF9
:1039F00000A00E4038B504464518AC4204D014F877
:103A0000010BFFF7B3FFF8E738BD10B5034C23797E
:103A100013B106F0CFFCFAE710BD00BF981DFF1FE1
:103A2000054B9878DA78C0B2D3B298422CBF2733CE
:103A300003F1FF33181A7047981DFF1F044B1878C5
:103A40005A78C0B2D3B2984238BF4030C01A7047DB
:103A5000981DFF1F10B50F4C23786278D9B2D2B2EF
:103A6000914214D0531C402B28BF0023E21892F837
:103A70003800DAB26270A268C0B252B18B4288BF1D
:103A80004031CB1A1A2B04DC0023137010BD4FF009
:103A9000FF3010BD981DFF1F084A11785378DBB224
:103AA000994208D00133402B28BF0023134493F8D8
:103AB0003800C0B270474FF0FF307047981DFF1FAD
:103AC000044B5A78D2B21A709B680BB100221A705C
:103AD000704700BF981DFF1F10B5274B1A7992063B
:103AE0001FD5264AD9791378507801333F2BC8BFA8
:103AF0000023834218BFD018C9B21EBF80F8381007
:103B0000D9B21170916861B11C4AD278D2B2934295
:103B100036BFC2F140029B1A9B18272BC4BF01235A
:103B20000B701548C278D2B2130615D503791C065E
:103B300012D512498C78CB78DBB29C4202D16C232F
:103B4000C37009E00133282B28BF0023CC18DBB257
:103B5000247CE4B2C471CB7051060BD5064B1A79A4
:103B6000520607D5054A00211171D26802B11170C1
:103B70002C22DA7010BD00BF00A00E40981DFF1F60
:103B800008B50B4D2C462B68580301D5FFF702F8FA
:103B90002368590501D5FDF7E1FF23681A0501D512
:103BA00000F0FEFA2368DB04EDD5FCF74FFEEAE7F0
:103BB0003480044008B5FFF7E3FF024B10221A805F
:103BC000704700BF0020054070470A4908B50B68E0
:103BD00068B16A461844A2F50052904206D309F033
:103BE00043FA0C2303604FF0FF3008BD086018460D
:103BF00008BD00BFC80FFF1F002070474FF0FF3007
:103C000070474FF400534B6000207047012070470D
:103C10004FF0FF307047FEE7FEE70078B0FA80F023
:103C200040097047012303707047EFF31380A8B970
:103C3000EFF31082A2B9EFF3058323B10F2B05D95F
:103C4000084A985C03E04FF4807000E01046EFF300
:103C500011832BB1984228BF184670474FF0FF30B0
:103C6000704700BFF0E300E0204A136843F40063AC
:103C700013601F4B00221A705A709A70DA701A7112
:103C80001C4B1A78092A05D03B2A07D140F2133180
:103C9000194A02E0194A40F2133111605B780A2B8D
:103CA00005D03A2B07D14FF45172154B02E0154B5A
:103CB0004FF451721A60144BC0F344321A70C0F3BF
:103CC00047125A700421022200F01F009872997066
:103CD000DA745975882119743C21D9700B4B402135
:103CE00019706FF447710B441A60704734800440B8
:103CF000101EFF1FCC0FFF1F04D004400CB0044067
:103D000000D0044010B0044000B0064021E400E0C0
:103D1000184B9A7802F0EC0100F003020A434107C5
:103D200048BF42F010029A70124900F00F02042AB4
:103D300002BF8A7942F040028A715A79C30602F0C2
:103D4000EF020C4B48BF42F010025A719A7981067B
:103D500002F0EF0248BF42F010029A71C305054914
:103D600006D54B780A78DBB242F020020A704B701D
:103D7000704700BF00B006401B4B1B681B0510B509
:103D800000D410BD194C2379184A03F0FF0113B178
:103D900006F010FBF7E7164B02201860154BD970A0
:103DA000154B1878092804D03B2806D11348016028
:103DB00003E0134940F2031008605B7803F07F03CF
:103DC0000A2B04D03A2B06D100210E4B02E00E4BF9
:103DD00040F20311196000231370537093680BB104
:103DE00001221A7010BD00BF34800440101EFF1F56
:103DF00084E100E000B00640CC0FFF1F04D0044077
:103E00000CB0044000D0044010B004400A4A38B559
:103E10000446137903F0FF05002BFAD10121204657
:103E2000FCF7D6FE29462046FCF7A4FE034B53F8C8
:103E30003420014BDA6038BD101EFF1F480A010014
:103E400010B509B140F08000144A537898421446E6
:103E500022D0134A126812051DD503F07F030A2BE6
:103E600004D03A2B05D100220E4B01E00E4B00226C
:103E70001A60002900F07F0214BF602344230A2A3D
:103E800005D03A2A07D143F44073064A02E0064AB5
:103E900043F440731360607010BD00BFCC0FFF1F70
:103EA0003480044000D0044010B004400F4B1A7816
:103EB00082421AD00E490968090515D5092A04D08D
:103EC0003B2A05D100210B4A01E00B4A0021116079
:103ED000092805D03B2807D140F21331054A02E0FA
:103EE000054A40F21331116018707047CC0FFF1F64
:103EF0003480044004D004400CB0044038B50D4B6D
:103F00001B6813F400634FF0000410D03F280A4DE3
:103F10000AD80A4B012153F83030AB60FCF758FE49
:103F2000AB681C70012038BDAC60204638BD184617
:103F300038BD00BF34800440101EFF1F480A010036
:103F40000E4B1B6813F4006316D017280C4B03D1DB
:103F500040F202310B4A04E03C2809D10A4A40F2FF
:103F6000023111605A7B42F001025A7301207047FE
:103F70005A7B02F0FE025A730020704734800440DE
:103F800000B0064008B0044008D004401E4B1B6837
:103F90001A052DE9F041064633D51C4DEB680BB1EF
:103FA00001221A70AC78DFF86480194F0134282C94
:103FB00028BF0024EA78154B944218D1FFF735FE4C
:103FC00040280FDC3B791B06F4D598F80330013309
:103FD000282B28BF0023EA18DBB2127CD2B2FA7178
:103FE000EB70E7E7FF28E5DD06F0E4F9E2E71A19F0
:103FF000F6B21674E4B201221A719C70044BBC2212
:10400000DA70BDE8F08100BF34800440101EFF1F4D
:1040100000B00640234B1B681A052DE9F0413ED540
:10402000214CE3680BB101221A70DFF8808006464C
:104030004718BE4230D2A578E3780135282D28BF35
:1040400000259D4208D0631916F8012B1A74EDB2B1
:1040500001232371A570ECE7BC2388F80330FFF738
:10406000E4FD402810DC98F804301B0610D5E378F6
:104070000133282B28BF0023E218DBB2127CD2B216
:1040800088F80720E37003E0FF2801DD06F092F9CD
:10409000E3789D42E3D0D6E7044BBC22DA70BDE85A
:1040A000F08100BF34800440101EFF1F00B00640A6
:1040B00010B5034C237913B106F07CF9FAE710BD73
:1040C000101EFF1F054B9878DA78C0B2D3B2984221
:1040D0002CBF273303F1FF33181A7047101EFF1F40
:1040E000044B18785A78C0B2D3B2984238BF4030E7
:1040F000C01A7047101EFF1F10B50F4C237862784E
:10410000D9B2D2B2914214D0531C402B28BF002305
:10411000E21892F83800DAB26270A268C0B252B106
:104120008B4288BF4031CB1A1A2B04DC002313705A
:1041300010BD4FF0FF3010BD101EFF1F084A117850
:104140005378DBB2994208D00133402B28BF0023BB
:10415000134493F83800C0B270474FF0FF307047F7
:10416000101EFF1F0B4B1B681B0512D50A4BDA787C
:1041700002F0CB02DA7040225A74DA7842F034024C
:10418000DA70064B5A78D2B21A709B680BB10022D3
:104190001A7070473480044000B00640101EFF1FA4
:1041A00070B53348037913F0300F2ED072B6837D8B
:1041B00003F0FF0523B9C3794023437462B624E0BA
:1041C00062B62C490B784A78DBB2D2B25C1C402C28
:1041D00028BF00249442C67918BF0B19F6B21CBF41
:1041E00083F8386023466C1E14F0FF05EED1D8B278
:1041F0000870896849B1934236BFC2F140029B1AE8
:104200009B18272BC4BF01230B70194AD078C0B26A
:1042100006061DD513791D061AD516498D78CB785B
:10422000EDB2DBB2AB420BD00133282B28BF002309
:104230001479CC18247CE4B2D471147D072CF1D904
:10424000DBB2CB700A4B1A79140644BF7C22DA70B9
:1042500041060BD5064B1A79520607D5054A0021AF
:104260001171D26802B111703C22DA7070BD00BFCA
:1042700000B00640101EFF1F704710B5044605F041
:1042800029FC204610BDFFFF0448054A05490023CC
:10429000036180230375103008F0B8BE881EFF1F2D
:1042A000280DFF1F7B4200008378016963F07F03C4
:1042B000837000F11002806803F074B92DE9F041B9
:1042C000037803F02003044603F0FF050BB100263A
:1042D0002FE04269184B9A42F9D8FFF7E5FF0646EE
:1042E0000028F4D02169A06803F0F1F80746A0681F
:1042F00005223946243003F0C5F880460028E6D070
:1043000029464FF4007208F098FF0125A3681A7936
:10431000AA420AD91868036842469B68E919984777
:104320000028D4D00135EDB2F0E7636903EB4223F6
:1043300063613046BDE8F081FFFD1F0010B5044603
:1043400080680A462430A16903F09CF820B1A38854
:1043500003F00F0300EB431010BDF7B5046A0546E8
:104360000F4616465CB101AA2146A86803F0B5F8CD
:10437000002804DB05D0019B01349C42F3D00020CF
:104380000EE0296AA86803F0A2F821463860A86800
:1043900003F09DF8AB681B79013B184430600120A5
:1043A00003B0F0BDF0B50024451E082623462E2795
:1043B00015F8012F202A18D0082C02BFCF545A1C00
:1043C000D3B22A78A2F1410E08BF1026BEF1190F10
:1043D00006D890F80CE016EA0E0F1CBF2032D2B2BD
:1043E00003F1010ECA545FFA8EF301340B2CDFD1B6
:1043F0000022CA541846F0BD73B5037813F0700F4D
:10440000054601D100201FE09A0603D5836818896C
:10441000400119E05B064ABF8368036A1B6A02AE6B
:10442000002446F8043D32460199A86803F055F887
:104430000028E7DBB4F5805FE4D2AB681B791C444D
:10444000A4B20028EFD1600202B070BD43690B60D6
:1044500003694B60704770B5047805460E4684B911
:104460002422214608F0E9FEAE60F379102B03D038
:10447000202B06D1402300E0202301202B70A870C0
:1044800070BD002070BD2DE9F74F037804468946C2
:1044900015464BB18278D10706D50CE05A46216902
:1044A00003F01BF800283DDA637843F002036370E1
:1044B0004FF0FF309BE01A0703D5E36962699B1A4E
:1044C00007E09A0608D5A3681A896369C3EB42130B
:1044D0009BB29D4228BF1D462E464FF0000804F1B6
:1044E000100B002E35D022786369A06812F0200FDF
:1044F000C3F3080A4FEA532102D0036A19441DE0AE
:1045000090F8058001EA0808BAF1000F10D1B8F15F
:10451000000F0DD1002BC1D153064CBF036A236A93
:10452000236105E004D1237813F0700F11D1BBE7AC
:104530002169A06802F0CBFF08EB0001A068BAF186
:10454000000F37D1B6F5007F34D3C26A914202D151
:1045500030E0A81B4BE0B6F5806F1CD32778BF0670
:104560004FEA562306D40779C8EB0707FFB2BB42D0
:1045700028BF3B4691424FEA432708D2A268106801
:104580000268D2F80CA04A46D04768B98CE71A44B2
:10459000914222D3F2E7006803684A461B689847B5
:1045A000002881D04FF4007763693B44B9446361CC
:1045B000F61B96E70022243002F064FF00283FF447
:1045C00073AFCAF50077B74228BF374600EB0A0140
:1045D0003A46484608F00BFEE6E724308DE80A002C
:1045E00002F029FF9DE80A000028C7D15CE703B06C
:1045F000BDE8F08F2DE9F34707460D4690461E466D
:104600004FF6FF7A00240FFA84F909F101034345BC
:104610001FDA01220DF107013846FFF734FF1FFAB8
:1046200080FABAF1010F14D19DF807100D29EAD0D4
:104630000134A4B205F8091016B90A29E3D104E03F
:10464000304608F0F6FE0028DDD023B20022EA54FE
:1046500004E01AF4004FF8D04FF6FF7420B202B015
:10466000BDE8F08773B501220DF1070104464669E4
:104670000569FFF708FF012805BF9DF8070066617F
:104680004FF0FF30256102B070BD38B5037813F0EC
:10469000700F05460C461AD04369DA0617D120225E
:1046A00021462846FFF7EFFE03B2202B04D0002B53
:1046B00014BFFF2000200DE0237853B1E52BEED08E
:1046C0002E2BECD0E37A1B07E9D4C0B202E0FF2026
:1046D00000E0184640B238BD436937B5C3F343150F
:1046E000044605B169B901220DF107012046FFF723
:1046F000CAFE40B2012801D0002008E063691F33E0
:1047000000E02033A0686361303000EB451003B057
:1047100030BD2DE9F0410E460178076904460029B5
:1047200039D04569B5423AD00EB9066131E00B0780
:1047300003D5C3699E422ED807E0880605D5A36835
:104740001B89B6EB431F26D823E0D4F808E09EF877
:1047500006306A1E03F10900731EC240C3409A422C
:1047600000D84DB94A064CBFDEF82020226A2261EB
:104770001D4604F110080AE09B1AF9E74246216938
:10478000A06802F0AAFE002805F1FF3503DD002D28
:10479000F4D1666103E027610020BDE8F0810120CB
:1047A000BDE8F081F8B50F461646002124220446E4
:1047B0001D4608F042FDB8683B6AE36006F00F0250
:1047C00000F1300352011344A060A680D97A0F078C
:1047D00002D500202070F8BD811891F83B1001F03F
:1047E00017012170DB7A13F0180F04BF41F00801A4
:1047F00021709DF81830E37015F0320F03D0237844
:1048000013F0110FE5D105F00F03A370C36AA36184
:104810000244EE06B2F84430B2F84A1041EA0341CD
:1048200004D571B102F037FF58B9D2E72162D36CD9
:10483000E361AB060AD5E1692046FFF76AFF28B9B4
:10484000C7E7A37863F07F03A370F2E70120F8BD08
:104850002DE9F743037806460D46174653BB0B7800
:1048600013F0700F26D04C6914F01F0422D1A0461B
:1048700000212846D5F81490FFF72EFFD0B1037819
:10488000C3B12E2B01D10024F2E7E52BFBD0C17A76
:1048900011F0080F05D17CB104F080FC804509D1EE
:1048A0000AE00F29EFD15906E2D503F01F0490F872
:1048B0000D80DDE7002007E000943B46C9F34F126E
:1048C00029463046FFF76EFF03B0BDE8F08310B510
:1048D0000378DA0604461FD50021FFF71AFF0121ED
:1048E0002046FFF7F9FE10B9637853B114E003785E
:1048F0003BB1E52BF3D02E2BF1D0C37A1B07EED4BE
:104900000AE008232370A37843F00203A370204633
:10491000BDE8104004F030BE002010BD2DE9F74383
:10492000047880460E46154699460CB1002044E0B6
:104930000B7813F0700FF9D019F0800FF6D1CDB1CC
:10494000691E49013046FFF7E4FE0028EED02146FB
:104950003046FFF7C1FE0028E8D0C37A0F2B10D1F4
:10496000037803F01F03012B0BD1142D477B0AD8CA
:10497000ECB209E029463046FFF7CBFE2C462F4625
:1049800002E0274600E0142400213046FFF7A4FE91
:104990000028CBD00378E52BC8D0002BC6D02E2B17
:1049A000C4D01CB104F0FAFBB842BFD100944B460E
:1049B0002A4631464046FFF7F5FE03B0BDE8F083D6
:1049C000F0B58BB00678002307460C468DF804300E
:1049D0008DF805300EB1002042E00B78002BFAD0A4
:1049E000C96819B9A168FFF736FD39E0A06802F07F
:1049F0006EFDA3680146324603F1240002F042FD39
:104A00000028E8D0858E438F53EA054505D1A1687B
:104A100001A8FFF720FD70B9DDE72422314601A887
:104A200008F00BFC10238DF8043001238DF80630BC
:104A3000A36803930995002101A8069DFFF74CFE8A
:104A40000028C8D0828A438B43EA0243E26893423B
:104A5000F1D10123C5F34F1201A93846FFF75EFFDC
:104A60000BB0F0BD30B503788BB0002113F0700FA0
:104A700004468DF804108DF8051001D1002044E0A3
:104A8000FFF747FE002120466569FFF725FE10B9B4
:104A900063788BB3F2E7037873B3E52BF2D02E2B58
:104AA000F0D0C37A1A07EDD4C5F34F1501232A4677
:104AB000214601A8FFF732FF0028DFD09DF804301F
:104AC000DB0603D501A8FFF7CDFF08E09DF806300F
:104AD00001A843F002038DF8063004F04DFD0028D4
:104AE000CCD0691C636949018B42CBD02046FFF7CB
:104AF00010FE0028C6D1C1E7237813F0600F03D160
:104B00002046FFF7E4FE00E001200BB030BD0B684B
:104B100043614B680361704738B5037804460BB9AD
:104B2000012038BD90F90230002B23DA0121FFF774
:104B300005FC054628B9637843F001036370002043
:104B400038BD0378E52BF6D023781B0744BFE36913
:104B5000C361236A43831B0C8382094B1B682BB1FF
:104B600000F11601183098472B8B6B82A37803F065
:104B70007F03A370A06800F0E5FB0028DBD0CFE73F
:104B8000A01EFF1F10B50446FFF7C6FF00232370C9
:104B900010BDF0B593B01F4600238DF824308DF87A
:104BA00025300378019206460C460BB100203DE00B
:104BB0000B7813F0700FF9D013782F2B12D1019BC3
:104BC0001A782F2A02D101330193F8E7A1681AB9A4
:104BD0003046FFF740FC29E009A8FFF73CFC00281D
:104BE000E4D009AC01AA03A9019804F076FB0028DF
:104BF000DCD0019B1B789BB1012303AA21463046E0
:104C000004F072FD0028D1D035460FCD09AC0FC499
:104C10000FCD0FC42B6823603046FFF7B3FFE0E7EA
:104C20003B4603AA2146304604F05EFD13B0F0BDBA
:104C300001F23C41FFF7ADBF00B58BB000238DF80A
:104C400004308DF805300A460223014601A8FFF71B
:104C5000A0FF10B101A804F08FFC0BB05DF804FBBD
:104C600038B504461D46E3B1C323FFF792FFC0B138
:104C7000A0688379691E0933D94004F1200201310B
:104C800002F0C5FC18B9204604F076FC09E0A378D0
:104C9000E56163F07F03A3702046BDE83840FFF76D
:104CA0003BBF002038BD70B506460C46FFF734FF09
:104CB000054608B900250EE000213046FFF73EFB0F
:104CC0000028F7D0214600F1200350F8042B41F8CA
:104CD000042B9842F9D1284670BD2DE9F0410B789C
:104CE00013F0700F88B004460F461BD0C32304F0A6
:104CF000FBFCB8B101261025A67025702046FFF7F1
:104D0000DDFA78B12369236200212046FFF701FD17
:104D10002046FFF701FF28B131462046FFF70EFB82
:104D2000034608B9002051E0C57202466E4600F104
:104D3000200C6D4610685168B646AEE80300083294
:104D400062457646F6D1B3F814805E8B2E238DF83B
:104D5000003020210023EA1801330A2B5170FAD1C8
:104D6000216AA06802F0B3FBA3680146012203F1A7
:104D7000240002F087FB03460028D3D0ADF81A6068
:104D8000ADF81480AE4606460DF1200C724603CAFB
:104D9000624530607160964606F10806F6D12E2213
:104DA0008DF801203A6AADF81A20110CADF81410F4
:104DB000203308AE2A4603CAB2421860596015462D
:104DC00003F10803F6D1A06800F0BCFA08B0BDE812
:104DD000F081F0B593B01F4600238DF824308DF894
:104DE00025300378019206460C46002B3ED10B7805
:104DF00013F0700F3AD013782F2B0CD1019B1A7837
:104E00002F2A02D101330193F8E7A16809A8FFF71F
:104E100022FB58B309AC01AA03A9019804F05DFA7A
:104E200020B3019B1B78DBB1012303AA2146304646
:104E300004F05AFC58B135460FCD09AC0FC40FCD64
:104E40000FC42B6823603046FFF79CFEE2E76FB18A
:104E500003AA21463046FFF740FF0028EBD105E0CA
:104E600003AA21463046FFF738FF00E0002013B0C8
:104E7000F0BD2DE9F04303789BB04FF0000913F02B
:104E8000180F04460F4690468DF820908DF821901B
:104E90008DF844908DF8459001D10020ACE08268F7
:104EA0008B689A42F9D12646FFF736FE0FCE11AD38
:104EB0000FC50FCE0FC533682B6049462046FFF75C
:104EC0003DFA0028E9D003466A4600F1200E6D46FF
:104ED00018685968164603C6083373453246F7D139
:104EE000227802F0080202F0FF0308AE4AB1C223A2
:104EF000424639463046FFF74CFE0028CDD0002709
:104F000007E0424639463046FFF763FF0028C4D029
:104F1000109F0E9BA361BDF82430A3809DF8233021
:104F2000E3700B9BE3600121002320468DF82030C5
:104F3000FFF704FA0028B0D00DF10D0300F10D02C7
:104F40000DF11D0153F804EB42F804EB8B42F9D14B
:104F5000198811809B7893709DF80B30C372002FD5
:104F600039D03946A06802F0B2FAA368014600229F
:104F700003F1240002F086FA00288ED000F120030D
:104F8000AE4600F1400C18685968724603C20833F7
:104F900063459646F7D13946A06802F07CFB0028AD
:104FA0003FF47BAF216AA06802F091FAA368014642
:104FB000012203F1240002F065FA00283FF46DAFEE
:104FC00000F120032A4603CAB24218605960154610
:104FD00003F10803F6D10023199302238DF846301C
:104FE00011A808238DF8443004F0C6FA00283FF4D5
:104FF00054AFA06800F0A6F91BB0BDE8F08310B56F
:10500000044688B023781A07084625D50B781B0775
:1050100022D56946FFF747FEF0B12046FFF77CFD39
:10502000D0B101212046FFF789F9A8B1BDF81230AF
:105030004382BDF810300382BDF80E30C3819DF865
:105040000D304373BDF818300383BDF81630C382AA
:10505000A06800F077F900E0002008B010BD2DE94D
:10506000F84F1C4603789DF828B09DF82C909DF8C9
:1050700030A09DF834501B0706460F4602D400208E
:10508000BDE8F88FA2F2BC781FFA88F37F2BF6D820
:10509000631E0B2BF3D80BF1FF331E2BEFD8B9F1A6
:1050A000170FECD8BAF13B0FE9D83B2DE7D8FFF743
:1050B00033FD0028E3D001213046FFF73FF90028F7
:1050C000DDD04BEA441444EA48286B10FC071FFA71
:1050D00088F843EA4A1343EAC92348BFA0F812807C
:1050E000B9079BB207D515F0010518BF6425A0F8D4
:1050F0001080C38145737A0744BFA0F81880C3822B
:10510000B06800F01FF9BDE8F88F73B503781A078F
:1051100004460D460BD583789B0708D5C3698B429F
:1051200005D3002B36D06669FFF7F3FA08B90020E3
:1051300031E03DB9216AA06802F0ADFA0028F6D04E
:10514000256215E001AA2169A06802F0C6F90028CD
:10515000EDDB0DD00199A06802F09DFA0028E6D0A1
:105160006FF070422169A06802F0EEF90028DED0ED
:10517000A378E56163F07F03A3702046FFF7CCFCC2
:105180000028D4D0B5422946204628BF3146FFF733
:10519000C0FA00E0012002B070BD2DE9F0470378AD
:1051A0001D0704468846174608D58378990705D514
:1051B0005B070BD5E169FFF7ACFA38B9637843F0C8
:1051C000010363704FF0FF30BDE8F0876369DB4394
:1051D0009F42F3D83E464FF000096369002E00F06D
:1051E0008A80A068427912EA5325C3F3080A1ED1C7
:1051F000BAF1000F1BD1216971B104F1100202F064
:105200006CF90028DADB40F094802046FFF74CF878
:10521000002840F08E80D1E7236A3BB92046FFF793
:1052200043F80028CAD02369236200E02361216982
:10523000A06802F04CF92918BAF1000F02D1B6F5B6
:10524000007F23D2CAF50075B54228BF3546BAF1B2
:10525000000F06D16369E269934234BF012205223F
:1052600000E00122A068243002F00CF90028A5D04B
:1052700050442A464146AA4407F0B9FFBAF5007FD8
:1052800033D1A068243002F0D6F819E0B6F5806F6B
:10529000A06817D30279521B730AD2B2934228BF77
:1052A0001346C26A8A424FEA432502D81A448A4208
:1052B00039D8A26810680268D2F810A04246D047D8
:1052C00098B97BE7C36A8B4202BF80F824904FF005
:1052D000FF33C362A3681868036842469B68984717
:1052E00000283FF46BAF4FF4007563692B44636192
:1052F000A844761B71E7E2699342A27801D9E36181
:1053000002E00F4B1B6813B162F07F02A270A3781A
:105310001A0702D43846BDE8F0872046FFF7FCFBA9
:105320000028F7D14AE74FF0FF3280F82490C2629C
:10533000BFE72169A06802F0CAF801467FE700BF15
:10534000A01EFF1F10B50446243002F074F850B1BF
:1053500004F50C7002F06FF828B120680368BDE80E
:1053600010405B681847002010BDFFFFB1F5607F5B
:10537000F0B528BF4FF4607172B6144A0023106074
:10538000938002F108041D4644F8235001331C2B7E
:10539000FAD1002301278B4203D100234FF48274FA
:1053A0000BE05C0902EB840403F01F0507FA05F625
:1053B000A5683543A5600133EDE78B4204D004FBBB
:1053C000030253800133F8E762B6F0BDA81EFF1F49
:1053D00070B572B61E4B998803F1080000EB81028C
:1053E000064603F17805AA4202D362B6002070BDDA
:1053F000144654F8040B10B901312246F3E7B0FA11
:1054000080F54FF00044EC4020EA0400106000B941
:10541000013193F8784099800134E4B283F8784000
:1054200062B6921B9210C5EB42124FF482714A434E
:1054300002F5FB5219681C3201258D5493F879301E
:10544000A3423CBF024B83F87940881870BD00BF6F
:10545000A81EFF1F10B5428872B60378012B02D92F
:10546000013B037016E00C4B511103EB8104D24356
:105470004FF0004002F01F0220FA02F2A068104331
:105480009A88A060914293F8782038BF9980013AB9
:1054900083F8782062B610BDA81EFF1F30B5C36820
:1054A0007BB1187A90420AD158685C7A006950F84A
:1054B000245025B940F82410087801300870DB68C2
:1054C000EEE730BD437A8B4288BF02694FF000039C
:1054D00086BF52F8210042F821301846704738B58F
:1054E000437A8B4201D8002038BD036953F821402C
:1054F000002243F82120002CF5D02378012B0ED96F
:10550000FFF766FF054628B14FF48072211D043075
:1055100007F06DFE2378013B2370284638BD2046F6
:1055200038BD4368427A5B7A9A420FD872B60268F5
:10553000D3680BB9D06004E0D96809B10B46FBE72A
:10554000D860012313724268137262B67047084B29
:1055500093F87A204AB9074AD0211170A2F54E7209
:105560000120106083F87A0070470020704700BF68
:10557000A81EFF1F40E400E0034B01221A60034B0A
:10558000002283F87A20704788E100E0A81EFF1F00
:105590001A4A136843F080732DE9F0411360184AEA
:1055A000184D136843F001031360174A2F68D46F36
:1055B00016469CB1237A7BB12368D5F800801B681E
:1055C000204698472A68E388C8EB0202120991B284
:1055D0009A42A18088BFE1806469EAE72B68B6F847
:1055E0008210DB1B1B098B429AB288BF064BA6F8C0
:1055F000802088BFA3F88220BDE8F081FCED00E0A8
:10560000001000E0041000E0A81EFF1F10B50446C3
:1056100023681BB9FDF724FE2060F9E710BD10B523
:105620000446236823B90420FDF7CEF92060F8E78B
:1056300010BD2DE9F047002405468846164600F1C6
:1056400004092746B4421EDA4846FFF7DFFF6B68BD
:1056500033F8080B321BC0F1400A9245A8BF9246AE
:1056600008EB04011844524607F0C1FD69680B8835
:1056700053449BB2402B0B805444E3D10420FDF7EC
:1056800027FA6F60DEE7BDE8F08738B505460068A9
:1056900003681B6998470024286803685B6998477A
:1056A00008B10134F8E7204638BD70B58EB0064623
:1056B00001A800F0F1FC05AC63230B4A0B4905A8D7
:1056C000FFF767FA0FCC06F114050FC50FCC0FC515
:1056D00023682B609DF808303372039BF3609DF8BC
:1056E000103033740EB070BD810D01006823FF1FB0
:1056F000704770470EB470B5ADF5177D9BAC06468C
:1057000054F8045B06F094FB204B03941B6804934D
:10571000049901964FF47A72B1FBF2F302FB131273
:10572000009240211A4A05A807F042FE044605A847
:105730002A46039B174D4FF40071204408F078FE71
:1057400005AB04441819144907F08BFE05AA134948
:10575000134804F014FDD5F870640234C6F5805384
:105760009C42A8BF1C46002C09DD05F2744022466D
:1057700005A93044344407F03AFDC5F870440DF5EE
:10578000177DBDE8704003B0704700BF041BFF1FCA
:10579000C00D01002C1FFF1FCD0D0100D00D010019
:1057A0000C10FF1F30B50F480F4DADF5037D0023E2
:1057B00001AA595D0C1101F00F01045D02F81340BC
:1057C00002EB43040133415C6170102BF1D10023E3
:1057D0000649074882F82030FFF78CFF0DF5037D5E
:1057E00030BD00BF700D0100A033FF1FD00D0100C0
:1057F000D30D010010B561488AB000F05BFC30B9F0
:105800005F49604800F03EFC4FF0FF30B4E05E4876
:105810005E4C02F01BFE5E49081F03F079FAA8B146
:1058200004F2EC7002F012FE04F5006104F2EC7078
:1058300003F07CFA50B104F2EC7002F007FE04F5BC
:10584000016104F2EC7003F0EDFA30B951494D48B2
:1058500000F018FC6FF001008EE004F2EC7002F032
:10586000F5FD04F2EC7003F036FB02287ED14A49C4
:1058700002E001287ED14949424800F003FC94F837
:105880000038424913F0C0031FD191F8062891F85F
:10589000073891F80A0802F003029B0043EA8223CA
:1058A00091F8082843EA9212531C91F8092891F8BC
:1058B000051802F00302520042EAD01201F00F0173
:1058C0000A44073A03FA02F20FE0402B01BF91F8B5
:1058D000092891F80838013202EB032203BF91F83E
:1058E000073802EB034292020022D30A2C492D48CA
:1058F000FFF700FF2C4801F0EAFE00238DF804308A
:105900008DF80530294A2A49012301A8FFF741F9FA
:1059100018B128492348FFF7EDFE1C4C2649234ABD
:105920000968432304F61C00FFF733F930B9234913
:105930001C48FFF7DFFE6FF004001DE094F81C38F0
:1059400003F0080303F0FF023BB1D4F83838D4F871
:1059500030289A1A48BF6FF000421949094804F0EC
:105960000EFC184804F096FD002005E0032880D1C5
:10597000154981E715497FE70AB010BD2C1FFF1FAD
:10598000D70D01000C10FF1F1038FF1F2430FF1F20
:105990001438FF1FD00E0100FB0D0100EA0D0100BD
:1059A000370E01005F0E0100B033FF1F660E0100CD
:1059B000EC37FF1F760E0100A41EFF1F860E0100AC
:1059C000B00E01006438FF1F0C0E0100230E010011
:1059D00010B50A4804F044FD78B1094CD4F870249D
:1059E000002A0ADD04F274410648FFF7D6FB054899
:1059F000FFF792F80023C4F8703410BD6438FF1F1D
:105A00002C1FFF1F4038FF1F38B50C4C0C4D04F6FF
:105A10004C01084601F0F2FB28780121FBF7D8F889
:105A200028780121FBF7A6F84FF47A70FBF76CFB9E
:105A300004F65800BDE8384004F02CBD2430FF1FA8
:105A4000D00FFF1F08B541200021FBF7C1F8024825
:105A5000BDE8084004F01EBD8838FF1F08B50748A0
:105A600004F0FEFC40B1064901F59A6001F02FFCFC
:105A700010B1FFF797FEF6E708BD00BF7C38FF1FA7
:105A8000A033FF1F08B5074804F0EAFC48B14120E5
:105A9000FDF7BCFD04490246BDE808400348FFF796
:105AA00029BE08BD8838FF1FE40E0100EB0E01007F
:105AB00008B540F62300FBF773FD0248BDE8084037
:105AC00004F0E8BC9438FF1F10B50F48C0B004F0D4
:105AD000C7FCB0B1FBF7E2FF0446002C11DD6A46BB
